{
  "_format": "hh-sol-artifact-1",
  "contractName": "TaskPool",
  "sourceName": "contracts/taskPool.sol",
  "abi": [
    {
      "inputs": [],
      "stateMutability": "payable",
      "type": "constructor"
    },
    {
      "anonymous": false,
      "inputs": [
        {
          "indexed": false,
          "internalType": "address",
          "name": "_from",
          "type": "address"
        }
      ],
      "name": "cancel",
      "type": "event"
    },
    {
      "anonymous": false,
      "inputs": [
        {
          "indexed": false,
          "internalType": "address",
          "name": "_from",
          "type": "address"
        }
      ],
      "name": "createdTask",
      "type": "event"
    },
    {
      "stateMutability": "payable",
      "type": "fallback"
    },
    {
      "inputs": [],
      "name": "_owner",
      "outputs": [
        {
          "internalType": "address payable",
          "name": "",
          "type": "address"
        }
      ],
      "stateMutability": "view",
      "type": "function"
    },
    {
      "inputs": [
        {
          "internalType": "uint256",
          "name": "taskId",
          "type": "uint256"
        }
      ],
      "name": "applyTask",
      "outputs": [],
      "stateMutability": "nonpayable",
      "type": "function"
    },
    {
      "inputs": [],
      "name": "balanceOfContract",
      "outputs": [
        {
          "internalType": "uint256",
          "name": "",
          "type": "uint256"
        }
      ],
      "stateMutability": "view",
      "type": "function"
    },
    {
      "inputs": [
        {
          "internalType": "uint256",
          "name": "taskId",
          "type": "uint256"
        }
      ],
      "name": "cancelApplication",
      "outputs": [],
      "stateMutability": "nonpayable",
      "type": "function"
    },
    {
      "inputs": [
        {
          "internalType": "uint256",
          "name": "taskId",
          "type": "uint256"
        }
      ],
      "name": "cancelOngoingTaskByFreelancer",
      "outputs": [],
      "stateMutability": "nonpayable",
      "type": "function"
    },
    {
      "inputs": [
        {
          "internalType": "uint256",
          "name": "taskId",
          "type": "uint256"
        }
      ],
      "name": "cancelTaskByOwner",
      "outputs": [],
      "stateMutability": "nonpayable",
      "type": "function"
    },
    {
      "inputs": [
        {
          "internalType": "uint256",
          "name": "taskId",
          "type": "uint256"
        }
      ],
      "name": "confirmFinishedTask",
      "outputs": [],
      "stateMutability": "nonpayable",
      "type": "function"
    },
    {
      "inputs": [],
      "name": "confirmTaskTakers",
      "outputs": [],
      "stateMutability": "nonpayable",
      "type": "function"
    },
    {
      "inputs": [
        {
          "internalType": "uint256",
          "name": "price",
          "type": "uint256"
        },
        {
          "internalType": "string",
          "name": "content",
          "type": "string"
        }
      ],
      "name": "createTask",
      "outputs": [],
      "stateMutability": "payable",
      "type": "function"
    },
    {
      "inputs": [
        {
          "internalType": "uint256",
          "name": "taskId",
          "type": "uint256"
        }
      ],
      "name": "finishTask",
      "outputs": [],
      "stateMutability": "nonpayable",
      "type": "function"
    },
    {
      "inputs": [
        {
          "internalType": "address",
          "name": "",
          "type": "address"
        }
      ],
      "name": "freelancers",
      "outputs": [
        {
          "internalType": "bool",
          "name": "isExistedUser",
          "type": "bool"
        },
        {
          "internalType": "bool",
          "name": "isOccupying",
          "type": "bool"
        },
        {
          "internalType": "uint256",
          "name": "currentTaskId",
          "type": "uint256"
        },
        {
          "internalType": "uint256",
          "name": "credit",
          "type": "uint256"
        }
      ],
      "stateMutability": "view",
      "type": "function"
    },
    {
      "inputs": [
        {
          "internalType": "address",
          "name": "freelancer",
          "type": "address"
        }
      ],
      "name": "getAppliedTaskFreelancer",
      "outputs": [
        {
          "internalType": "uint256[]",
          "name": "",
          "type": "uint256[]"
        }
      ],
      "stateMutability": "view",
      "type": "function"
    },
    {
      "inputs": [
        {
          "internalType": "uint256",
          "name": "taskId",
          "type": "uint256"
        }
      ],
      "name": "getApplierTasks",
      "outputs": [
        {
          "internalType": "address[]",
          "name": "",
          "type": "address[]"
        }
      ],
      "stateMutability": "view",
      "type": "function"
    },
    {
      "inputs": [
        {
          "internalType": "address",
          "name": "freelancer",
          "type": "address"
        }
      ],
      "name": "getHistoryFreelancer",
      "outputs": [
        {
          "internalType": "uint256[]",
          "name": "",
          "type": "uint256[]"
        }
      ],
      "stateMutability": "view",
      "type": "function"
    },
    {
      "inputs": [],
      "name": "minimalDonateAmount",
      "outputs": [
        {
          "internalType": "uint256",
          "name": "",
          "type": "uint256"
        }
      ],
      "stateMutability": "view",
      "type": "function"
    },
    {
      "inputs": [
        {
          "internalType": "uint256",
          "name": "",
          "type": "uint256"
        }
      ],
      "name": "tasks",
      "outputs": [
        {
          "internalType": "uint256",
          "name": "taskId",
          "type": "uint256"
        },
        {
          "internalType": "address",
          "name": "taker",
          "type": "address"
        },
        {
          "internalType": "string",
          "name": "description",
          "type": "string"
        },
        {
          "internalType": "uint256",
          "name": "commissionFee",
          "type": "uint256"
        },
        {
          "internalType": "uint256",
          "name": "deadline",
          "type": "uint256"
        },
        {
          "internalType": "enum TaskPool.TaskStatus",
          "name": "status",
          "type": "uint8"
        }
      ],
      "stateMutability": "view",
      "type": "function"
    },
    {
      "stateMutability": "payable",
      "type": "receive"
    }
  ],
  "bytecode": "0x6080604052670de0b6b3a76400006001556001600455336000806101000a81548173ffffffffffffffffffffffffffffffffffffffff021916908373ffffffffffffffffffffffffffffffffffffffff16021790555060016002819055506124708061006c6000396000f3fe6080604052600436106100f75760003560e01c8063842178b21161008a578063bd8be8d511610059578063bd8be8d5146105ae578063e0cf25e5146105d9578063e6c7c4561461067f578063ed25888d146106aa576100fe565b8063842178b2146103945780638d977672146103cf578063b2bdfa7b146104c7578063b71d056114610508576100fe565b80633d331586116100c65780633d331586146102535780635549b3a71461028e57806357984ad61461031e5780635bb1fa3414610359576100fe565b806307da3f771461010057806316d41b941461013b57806321bd6693146101be578063295224fe1461023c576100fe565b366100fe57005b005b34801561010c57600080fd5b506101396004803603602081101561012357600080fd5b81019080803590602001909291905050506106e5565b005b6101bc6004803603604081101561015157600080fd5b81019080803590602001909291908035906020019064010000000081111561017857600080fd5b82018360208201111561018a57600080fd5b803590602001918460018302840111640100000000831117156101ac57600080fd5b9091929391929390505050610a6e565b005b3480156101ca57600080fd5b5061020d600480360360208110156101e157600080fd5b81019080803573ffffffffffffffffffffffffffffffffffffffff169060200190929190505050610d0d565b604051808515158152602001841515815260200183815260200182815260200194505050505060405180910390f35b34801561024857600080fd5b50610251610d57565b005b34801561025f57600080fd5b5061028c6004803603602081101561027657600080fd5b81019080803590602001909291905050506111d5565b005b34801561029a57600080fd5b506102c7600480360360208110156102b157600080fd5b81019080803590602001909291905050506114c8565b6040518080602001828103825283818151815260200191508051906020019060200280838360005b8381101561030a5780820151818401526020810190506102ef565b505050509050019250505060405180910390f35b34801561032a57600080fd5b506103576004803603602081101561034157600080fd5b810190808035906020019092919050505061156c565b005b34801561036557600080fd5b506103926004803603602081101561037c57600080fd5b81019080803590602001909291905050506118c3565b005b3480156103a057600080fd5b506103cd600480360360208110156103b757600080fd5b8101908080359060200190929190505050611c0e565b005b3480156103db57600080fd5b50610408600480360360208110156103f257600080fd5b8101908080359060200190929190505050611e1a565b604051808781526020018673ffffffffffffffffffffffffffffffffffffffff1681526020018060200185815260200184815260200183600481111561044a57fe5b8152602001828103825286818151815260200191508051906020019080838360005b8381101561048757808201518184015260208101905061046c565b50505050905090810190601f1680156104b45780820380516001836020036101000a031916815260200191505b5097505050505050505060405180910390f35b3480156104d357600080fd5b506104dc611f1b565b604051808273ffffffffffffffffffffffffffffffffffffffff16815260200191505060405180910390f35b34801561051457600080fd5b506105576004803603602081101561052b57600080fd5b81019080803573ffffffffffffffffffffffffffffffffffffffff169060200190929190505050611f3f565b6040518080602001828103825283818151815260200191508051906020019060200280838360005b8381101561059a57808201518184015260208101905061057f565b505050509050019250505060405180910390f35b3480156105ba57600080fd5b506105c3611fd9565b6040518082815260200191505060405180910390f35b3480156105e557600080fd5b50610628600480360360208110156105fc57600080fd5b81019080803573ffffffffffffffffffffffffffffffffffffffff169060200190929190505050611fdf565b6040518080602001828103825283818151815260200191508051906020019060200280838360005b8381101561066b578082015181840152602081019050610650565b505050509050019250505060405180910390f35b34801561068b57600080fd5b50610694612079565b6040518082815260200191505060405180910390f35b3480156106b657600080fd5b506106e3600480360360208110156106cd57600080fd5b8101908080359060200190929190505050612081565b005b80600160048111156106f357fe5b6006600083815260200190815260200160002060050160009054906101000a900460ff16600481111561072257fe5b148061076757506002600481111561073657fe5b6006600083815260200190815260200160002060050160009054906101000a900460ff16600481111561076557fe5b145b6107d9576040517f08c379a00000000000000000000000000000000000000000000000000000000081526004018080602001828103825260138152602001807f5461736b206973206e6f7420616374697665210000000000000000000000000081525060200191505060405180910390fd5b8160025481111580156107ec5750600081115b61085e576040517f08c379a000000000000000000000000000000000000000000000000000000000815260040180806020018281038252600f8152602001807f496e76616c6964205461736b204944000000000000000000000000000000000081525060200191505060405180910390fd5b60006006600085815260200190815260200160002060050160009054906101000a900460ff1690506001600481111561089357fe5b81600481111561089f57fe5b141561094a5760066000858152602001908152602001600020600301544710156108c857600080fd5b60008054906101000a900473ffffffffffffffffffffffffffffffffffffffff1673ffffffffffffffffffffffffffffffffffffffff166108fc60066000878152602001908152602001600020600301549081150290604051600060405180830381858888f19350505050158015610944573d6000803e3d6000fd5b50610a1f565b6002600481111561095757fe5b81600481111561096357fe5b1415610a1e57600260066000868152602001908152602001600020600301548161098957fe5b0447101561099657600080fd5b60008054906101000a900473ffffffffffffffffffffffffffffffffffffffff1673ffffffffffffffffffffffffffffffffffffffff166108fc60026006600088815260200190815260200160002060030154816109f057fe5b049081150290604051600060405180830381858888f19350505050158015610a1c573d6000803e3d6000fd5b505b5b60046006600086815260200190815260200160002060050160006101000a81548160ff02191690836004811115610a5257fe5b0217905550600160036000828254039250508190555050505050565b60008054906101000a900473ffffffffffffffffffffffffffffffffffffffff1673ffffffffffffffffffffffffffffffffffffffff163373ffffffffffffffffffffffffffffffffffffffff1614610b2f576040517f08c379a000000000000000000000000000000000000000000000000000000000815260040180806020018281038252601e8152602001807f4f6e6c79206f776e65722063616e206f7065726174652074686973212121000081525060200191505060405180910390fd5b8280341015610ba6576040517f08c379a000000000000000000000000000000000000000000000000000000000815260040180806020018281038252601c8152602001807f5468652062616c616e636520697320696e73756666696369656e74210000000081525060200191505060405180910390fd5b60025460066000600254815260200190815260200160002060000181905550600060066000600254815260200190815260200160002060010160006101000a81548173ffffffffffffffffffffffffffffffffffffffff021916908373ffffffffffffffffffffffffffffffffffffffff16021790555082826006600060025481526020019081526020016000206002019190610c449291906122b3565b508360066000600254815260200190815260200160002060030181905550600160066000600254815260200190815260200160002060050160006101000a81548160ff02191690836004811115610c9757fe5b0217905550600160026000828254019250508190555060016003600082825401925050819055503373ffffffffffffffffffffffffffffffffffffffff166108fc8534039081150290604051600060405180830381858888f19350505050158015610d06573d6000803e3d6000fd5b5050505050565b60056020528060005260406000206000915090508060000160009054906101000a900460ff16908060000160019054906101000a900460ff16908060010154908060020154905084565b60008054906101000a900473ffffffffffffffffffffffffffffffffffffffff1673ffffffffffffffffffffffffffffffffffffffff163373ffffffffffffffffffffffffffffffffffffffff1614610e18576040517f08c379a000000000000000000000000000000000000000000000000000000000815260040180806020018281038252601e8152602001807f4f6e6c79206f776e65722063616e206f7065726174652074686973212121000081525060200191505060405180910390fd5b6000600190505b60025481116111d25760006006600083815260200190815260200160002060050160009054906101000a900460ff16905060016004811115610e5d57fe5b816004811115610e6957fe5b14156111c45760006006600084815260200190815260200160002060060190506000818054905011156111c25760008060005b838054905081101561101057600060056000868481548110610eba57fe5b9060005260206000200160009054906101000a900473ffffffffffffffffffffffffffffffffffffffff1673ffffffffffffffffffffffffffffffffffffffff1673ffffffffffffffffffffffffffffffffffffffff16815260200190815260200160002090508060000160019054906101000a900460ff16158015610f435750838160020154115b15610f895780600201549350848281548110610f5b57fe5b9060005260206000200160009054906101000a900473ffffffffffffffffffffffffffffffffffffffff1692505b600081600401905060005b818054905081101561100057600660008a815260200190815260200160002060000154828281548110610fc357fe5b90600052602060002001541415610ff357818181548110610fe057fe5b9060005260206000200160009055611000565b8080600101915050610f94565b5050508080600101915050610e9c565b50806006600087815260200190815260200160002060010160006101000a81548173ffffffffffffffffffffffffffffffffffffffff021916908373ffffffffffffffffffffffffffffffffffffffff16021790555060026006600087815260200190815260200160002060050160006101000a81548160ff0219169083600481111561109957fe5b02179055506001600560008373ffffffffffffffffffffffffffffffffffffffff1673ffffffffffffffffffffffffffffffffffffffff16815260200190815260200160002060000160016101000a81548160ff02191690831515021790555084600560008373ffffffffffffffffffffffffffffffffffffffff1673ffffffffffffffffffffffffffffffffffffffff16815260200190815260200160002060010181905550600560008273ffffffffffffffffffffffffffffffffffffffff1673ffffffffffffffffffffffffffffffffffffffff1681526020019081526020016000206003016006600087815260200190815260200160002060000154908060018154018082558091505060019003906000526020600020016000909190919091505550505b505b508080600101915050610e1f565b50565b8033600260048111156111e457fe5b6006600084815260200190815260200160002060050160009054906101000a900460ff16600481111561121357fe5b1115611287576040517f08c379a00000000000000000000000000000000000000000000000000000000081526004018080602001828103825260168152602001807f5461736b20697320616c72656164792074616b656e210000000000000000000081525060200191505060405180910390fd5b6000600481111561129457fe5b6006600084815260200190815260200160002060050160009054906101000a900460ff1660048111156112c357fe5b1415611337576040517f08c379a00000000000000000000000000000000000000000000000000000000081526004018080602001828103825260148152602001807f5461736b20646f6573206e6f742065786973742100000000000000000000000081525060200191505060405180910390fd5b600560008273ffffffffffffffffffffffffffffffffffffffff1673ffffffffffffffffffffffffffffffffffffffff16815260200190815260200160002060000160019054906101000a900460ff16156113dd576040517f08c379a000000000000000000000000000000000000000000000000000000000815260040180806020018281038252604f8152602001806123a4604f913960600191505060405180910390fd5b600060066000858152602001908152602001600020905060005b81600601805490508110156114c1573373ffffffffffffffffffffffffffffffffffffffff1682600601828154811061142c57fe5b9060005260206000200160009054906101000a900473ffffffffffffffffffffffffffffffffffffffff1673ffffffffffffffffffffffffffffffffffffffff1614156114b45781600601818154811061148257fe5b9060005260206000200160006101000a81549073ffffffffffffffffffffffffffffffffffffffff02191690556114c1565b80806001019150506113f7565b5050505050565b60606006600083815260200190815260200160002060060180548060200260200160405190810160405280929190818152602001828054801561156057602002820191906000526020600020905b8160009054906101000a900473ffffffffffffffffffffffffffffffffffffffff1673ffffffffffffffffffffffffffffffffffffffff1681526020019060010190808311611516575b50505050509050919050565b80336002600481111561157b57fe5b6006600084815260200190815260200160002060050160009054906101000a900460ff1660048111156115aa57fe5b111561161e576040517f08c379a00000000000000000000000000000000000000000000000000000000081526004018080602001828103825260168152602001807f5461736b20697320616c72656164792074616b656e210000000000000000000081525060200191505060405180910390fd5b6000600481111561162b57fe5b6006600084815260200190815260200160002060050160009054906101000a900460ff16600481111561165a57fe5b14156116ce576040517f08c379a00000000000000000000000000000000000000000000000000000000081526004018080602001828103825260148152602001807f5461736b20646f6573206e6f742065786973742100000000000000000000000081525060200191505060405180910390fd5b600560008273ffffffffffffffffffffffffffffffffffffffff1673ffffffffffffffffffffffffffffffffffffffff16815260200190815260200160002060000160019054906101000a900460ff1615611774576040517f08c379a000000000000000000000000000000000000000000000000000000000815260040180806020018281038252604f8152602001806123a4604f913960600191505060405180910390fd5b600560003373ffffffffffffffffffffffffffffffffffffffff1673ffffffffffffffffffffffffffffffffffffffff16815260200190815260200160002060000160009054906101000a900460ff166117d2576117d133612228565b5b6000600560003373ffffffffffffffffffffffffffffffffffffffff1673ffffffffffffffffffffffffffffffffffffffff168152602001908152602001600020905080600401849080600181540180825580915050600190039060005260206000200160009091909190915055600060066000868152602001908152602001600020905080600601339080600181540180825580915050600190039060005260206000200160009091909190916101000a81548173ffffffffffffffffffffffffffffffffffffffff021916908373ffffffffffffffffffffffffffffffffffffffff1602179055505050505050565b60008054906101000a900473ffffffffffffffffffffffffffffffffffffffff1673ffffffffffffffffffffffffffffffffffffffff163373ffffffffffffffffffffffffffffffffffffffff1614611984576040517f08c379a000000000000000000000000000000000000000000000000000000000815260040180806020018281038252601e8152602001807f4f6e6c79206f776e65722063616e206f7065726174652074686973212121000081525060200191505060405180910390fd5b8060025481111580156119975750600081115b611a09576040517f08c379a000000000000000000000000000000000000000000000000000000000815260040180806020018281038252600f8152602001807f496e76616c6964205461736b204944000000000000000000000000000000000081525060200191505060405180910390fd5b8160036004811115611a1757fe5b6006600083815260200190815260200160002060050160009054906101000a900460ff166004811115611a4657fe5b14611ab9576040517f08c379a000000000000000000000000000000000000000000000000000000000815260040180806020018281038252601e8152602001807f5461736b2068617320746f2062652066696e697368656420666972737421000081525060200191505060405180910390fd5b600060066000858152602001908152602001600020905060048160050160006101000a81548160ff02191690836004811115611af157fe5b02179055506000600560008360010160009054906101000a900473ffffffffffffffffffffffffffffffffffffffff1673ffffffffffffffffffffffffffffffffffffffff1673ffffffffffffffffffffffffffffffffffffffff168152602001908152602001600020905060008160000160016101000a81548160ff0219169083151502179055506000816001018190555060045481600201600082825401925050819055508160010160009054906101000a900473ffffffffffffffffffffffffffffffffffffffff1673ffffffffffffffffffffffffffffffffffffffff166108fc83600301549081150290604051600060405180830381858888f19350505050158015611c06573d6000803e3d6000fd5b505050505050565b806002548111158015611c215750600081115b611c93576040517f08c379a000000000000000000000000000000000000000000000000000000000815260040180806020018281038252600f8152602001807f496e76616c6964205461736b204944000000000000000000000000000000000081525060200191505060405180910390fd5b8160026004811115611ca157fe5b6006600083815260200190815260200160002060050160009054906101000a900460ff166004811115611cd057fe5b14611d43576040517f08c379a00000000000000000000000000000000000000000000000000000000081526004018080602001828103825260178152602001807f5461736b2068617320746f206265204f6e676f696e672100000000000000000081525060200191505060405180910390fd5b600560003373ffffffffffffffffffffffffffffffffffffffff1673ffffffffffffffffffffffffffffffffffffffff168152602001908152602001600020600101548314611ddd576040517f08c379a000000000000000000000000000000000000000000000000000000000815260040180806020018281038252602381526020018061235f6023913960400191505060405180910390fd5b60036006600085815260200190815260200160002060050160006101000a81548160ff02191690836004811115611e1057fe5b0217905550505050565b60066020528060005260406000206000915090508060000154908060010160009054906101000a900473ffffffffffffffffffffffffffffffffffffffff1690806002018054600181600116156101000203166002900480601f016020809104026020016040519081016040528092919081815260200182805460018160011615610100020316600290048015611ef25780601f10611ec757610100808354040283529160200191611ef2565b820191906000526020600020905b815481529060010190602001808311611ed557829003601f168201915b5050505050908060030154908060040154908060050160009054906101000a900460ff16905086565b60008054906101000a900473ffffffffffffffffffffffffffffffffffffffff1681565b6060600560008373ffffffffffffffffffffffffffffffffffffffff1673ffffffffffffffffffffffffffffffffffffffff168152602001908152602001600020600301805480602002602001604051908101604052809291908181526020018280548015611fcd57602002820191906000526020600020905b815481526020019060010190808311611fb9575b50505050509050919050565b60015481565b6060600560008373ffffffffffffffffffffffffffffffffffffffff1673ffffffffffffffffffffffffffffffffffffffff16815260200190815260200160002060040180548060200260200160405190810160405280929190818152602001828054801561206d57602002820191906000526020600020905b815481526020019060010190808311612059575b50505050509050919050565b600047905090565b6002600481111561208e57fe5b6006600083815260200190815260200160002060050160009054906101000a900460ff1660048111156120bd57fe5b14612113576040517f08c379a00000000000000000000000000000000000000000000000000000000081526004018080602001828103825260228152602001806123826022913960400191505060405180910390fd5b6000600560003373ffffffffffffffffffffffffffffffffffffffff1673ffffffffffffffffffffffffffffffffffffffff1681526020019081526020016000209050818160010154146121b2576040517f08c379a00000000000000000000000000000000000000000000000000000000081526004018080602001828103825260488152602001806123f36048913960600191505060405180910390fd5b6000816001018190555060008160000160016101000a81548160ff0219169083151502179055506001816002016000828254039250508190555060046006600084815260200190815260200160002060050160006101000a81548160ff0219169083600481111561221f57fe5b02179055505050565b6000600560008373ffffffffffffffffffffffffffffffffffffffff1673ffffffffffffffffffffffffffffffffffffffff168152602001908152602001600020905060018160000160006101000a81548160ff0219169083151502179055506064816002018190555060008160000160016101000a81548160ff0219169083151502179055505050565b828054600181600116156101000203166002900490600052602060002090601f0160209004810192826122e95760008555612330565b82601f1061230257803560ff1916838001178555612330565b82800160010185558215612330579182015b8281111561232f578235825591602001919060010190612314565b5b50905061233d9190612341565b5090565b5b8082111561235a576000816000905550600101612342565b509056fe54686973207461736b2069732074616b656e20627920736f6d656f6e6520656c73652e546865207461736b207374617475732073686f756c64206265206f6e676f696e672e546865207461736b2074616b65722068617320616e6f74686572206f6e676f696e67207461736b2c2065616368207461736b2074616b65722063616e206f6e6c792068617665206f6e65207461736b5468652063757272656e74207461736b2074686174207468697320667265656c616e63652069732074616b696e6720646f6573206e6f74206d617463682074686973207461736b2ea2646970667358221220ab37ccc6d33b83f8d3efbdd27f9ddd090aec068ba866586682a3d2ac6751862864736f6c63430007060033",
  "linkReferences": {},
  "deployedLinkReferences": {}
}